:020000040800F2
:10C0000000500020C9E90008A5E60008ABE60008DA
:10C01000B3E60008B9E60008BFE60008000000002B
:10C02000000000000000000000000000C134010812
:10C03000C5E6000800000000A1360108D1E60008AE
:10C0400011EA000811EA000811EA000811EA0008E4
:10C0500011EA000811EA000811EA000811EA0008D4
:10C0600011EA000811EA000811EA000811EA0008C4
:10C0700011EA000811EA000811EA000811EA0008B4
:10C0800011EA000811EA000811EA000811EA0008A4
:10C0900011EA000811EA000811EA000811EA000894
:10C0A00011EA000811EA000811EA000811EA000884
:10C0B00011EA000811EA000811EA000811EA000874
:10C0C00011EA000811EA000811EA000811EA000864
:10C0D00011EA0008EDE6000811EA000811EA00087C
:10C0E00011EA000811EA000811EA00080000000047
:10C0F0000000000000000000000000000000000040
:0CC1000000000000000000005FF808F1E3
:10C1100010B5054C237833B9044B13B10448AFF381
:10C1200000800123237010BDF000002000000000FB
:10C130003447010808B5034B1BB103490348AFF36B
:10C14000008008BD00000000F40000203447010812
:10C15000034613F8012B002AFBD1181A0138704747
:10C1600053B94AB9002908BF00281CBF4FF0FF315E
:10C170004FF0FF3000F076B9ADF1080C6DE904CE58
:10C1800000F006F8DDF804E0DDE9022304B07047B2
:10C190002DE9F047089E0D4604468846002B4DD1F8
:10C1A0008A42944668D9B2FA82F252B101FA02F395
:10C1B000C2F1200120FA01F10CFA02FC41EA030865
:10C1C00094404FEA1C41B8FBF1F71FFA8CFE01FBCB
:10C1D000178807FB0EF0230C43EA084398420AD95C
:10C1E0001CEB030307F1FF3580F01E81984240F2FB
:10C1F0001B81023F63441B1AB3FBF1F001FB1033B8
:10C2000000FB0EFEA4B244EA0344A6450AD91CEB87
:10C21000040400F1FF3380F00981A64540F2068155
:10C22000644402380021A4EB0E0440EA07401EB12A
:10C230000023D440C6E90043BDE8F0878B4208D90B
:10C24000002E00F0EE800021C6E900050846BDE89A
:10C25000F087B3FA83F100294AD1AB4202D382427C
:10C2600000F2FC80841A65EB030301209846002E3F
:10C27000E2D0C6E90048DFE702B9FFDEB2FA82F297
:10C28000002A40F09180A1EB0C0001214FEA1C47ED
:10C290001FFA8CFEB0FBF7F307FB1300250C45EAF1
:10C2A00000450EFB03F0A84208D91CEB050503F17D
:10C2B000FF3802D2A84200F2CE8043462D1AB5FBC9
:10C2C000F7F007FB10550EFB00FEA4B244EA05444C
:10C2D000A64508D91CEB040400F1FF3502D2A6459F
:10C2E00000F2B6802846A4EB0E0440EA03409EE725
:10C2F000C1F120078B4022FA07FC4CEA030C25FA17
:10C3000007FA4FEA1C49BAFBF9F820FA07F309FBD0
:10C3100018AA8D401FFA8CFE1D4300FA01F308FB9A
:10C320000EF02C0C44EA0A44A04202FA01F20BD9A6
:10C330001CEB040408F1FF3A80F08880A04240F230
:10C340008580A8F102086444241AB4FBF9F009FBC3
:10C35000104400FB0EFEADB245EA0444A64508D9E0
:10C360001CEB040400F1FF356CD2A6456AD90238F3
:10C37000644440EA0840A0FB0295A4EB0E04AC42E2
:10C38000C846AE4656D353D0002E69D0B3EB080250
:10C3900064EB0E0422FA01F304FA07F71F43CC40C2
:10C3A000C6E90074002147E70CFA02FCC2F1200143
:10C3B00025FA01F34FEA1C4720FA01F195400D439D
:10C3C000B3FBF7F107FB11331FFA8CFE280C40EA90
:10C3D000034001FB0EF3834204FA02F408D91CEB7C
:10C3E000000001F1FF382FD283422DD90239604479
:10C3F000C01AB0FBF7F307FB1300ADB245EA0045E6
:10C4000003FB0EF0A84208D91CEB050503F1FF3829
:10C4100016D2A84214D9023B6544281A43EA0141C6
:10C4200038E73146304607E72F46E4E61846F9E696
:10C430004B45A9D2B9EB020865EB0C0E0138A3E716
:10C440004346EAE7284694E74146D1E7D0467BE7F2
:10C450006444023847E7023B65442FE7084606E795
:10C460003146E9E6704700BF80B588B000AFC7E944
:10C470000001D7E90023C7E9062301237B6102E01D
:10C480007B6901337B61D7E906014FF00A024FF067
:10C490000003FFF765FE02460B46C7E90623D7E90E
:10C4A00006231343ECD17B690133184607F0A6FB42
:10C4B0000346FB60FB68002B01D100232BE07B6966
:10C4C000013B3B611DE0D7E900014FF00A024FF04C
:10C4D0000003FFF745FED2B23B69591E3961194688
:10C4E000FB680B443032D2B21A70D7E900014FF02A
:10C4F0000A024FF00003FFF733FE02460B46C7E97E
:10C500000023D7E900231343DDD17B69FA68134484
:10C5100000221A70FB6818462037BD4680BD80B5E2
:10C5200086B000AF78607B6804331B687B6102F0E3
:10C5300087FA03F025FB7B693B6172B600BF7B681D
:10C540001B68FB60FB6883F3088800BF3B69984762
:10C5500000BF1837BD4680BD80B485B000AFF8601D
:10C56000B9607A60FB68064A1A60BB68054A1A60BF
:10C570007B6880221A6000BF1437BD4680BC7047BC
:10C580000C010020C001002080B582B000AF03463E
:10C590000A46FB711346BB7100F042FC4E49012074
:10C5A00000F09CFCFA79BB791146184600F04EFC6D
:10C5B000012000F0BCFC4949022000F08FFCBB794F
:10C5C0000133DBB2FA791146184600F03FFC022035
:10C5D00000F0ADFC4249032000F080FCBB7902333F
:10C5E000DBB2FA791146184600F030FC032000F067
:10C5F0009EFC3C49042000F071FCBB790333DBB2A4
:10C60000FA791146184600F021FC042000F08FFC56
:10C610003549052000F062FCBB790533DBB2FA79BD
:10C620001146184600F012FC052000F080FCBB7992
:10C630000633DBB2FA791146184600F007FC0420F5
:10C6400000F075FC2949062000F048FCBB7907334F
:10C65000DBB2FA791146184600F0F8FB062000F02C
:10C6600066FCBB790833DBB2FA791146184600F054
:10C67000EDFB042000F05BFC1D49072000F02EFCC0
:10C68000BB790933DBB2FA791146184600F0DEFBBC
:10C69000072000F04CFC1749082000F01FFCBB7974
:10C6A0000A33DBB2FA791146184600F0CFFB0820B6
:10C6B00000F03DFCBB790B33DBB2FA79114618462A
:10C6C00000F0C4FB042000F032FC0B4800F03CFCFE
:10C6D00000BF0837BD4680BD0800002010000020C4
:10C6E00058000020200000202800002060000020CA
:10C6F00048000020300000204C47010880B582B07F
:10C7000000AF03460A46FB711346BB7100F088FB7D
:10C710004849012000F0E2FBFA79BB79114618463E
:10C7200000F094FB012000F002FC4349022000F0DD
:10C73000D5FBBB790133DBB2FA791146184600F01C
:10C7400085FB022000F0F3FB3C49032000F0C6FB10
:10C75000BB790233DBB2FA791146184600F076FB5A
:10C76000032000F0E4FBBB790333DBB2FA79114616
:10C77000184600F06BFB022000F0D9FB3049042082
:10C7800000F0ACFBBB790433DBB2FA7911461846F2
:10C7900000F05CFB042000F0CAFB2A49052000F0F1
:10C7A0009DFBBB790533DBB2FA791146184600F0E0
:10C7B0004DFB052000F0BBFB2349062000F08EFB5B
:10C7C000BB790633DBB2FA791146184600F03EFB1E
:10C7D000062000F0ACFBBB790833DBB2FA791146D6
:10C7E000184600F033FB022000F0A1FB1749072098
:10C7F00000F074FBBB790933DBB2FA7911461846B5
:10C8000000F024FB072000F092FBBB790A33DBB277
:10C81000FA791146184600F019FB022000F087FB58
:10C82000022000F084FB0A4800F08EFB00BF0837AE
:10C83000BD4680BD280000202000002038000020D8
:10C8400000000020080000203000002060000020D0
:10C850004C47010880B582B000AF03460A46FB7121
:10C860001346BB7100F0DCFA5949012000F036FB99
:10C87000FA79BB791146184600F0E8FA012000F079
:10C8800056FB5449022000F029FBBB790133DBB28F
:10C89000FA791146184600F0D9FA022000F047FB59
:10C8A0004D49032000F01AFBBB790233DBB2FA7961
:10C8B0001146184600F0CAFA032000F038FB474939
:10C8C000042000F00BFBBB790333DBB2FA7911468D
:10C8D000184600F0BBFA042000F029FB404905206F
:10C8E00000F0FCFABB790433DBB2FA791146184642
:10C8F00000F0ACFA052000F01AFB3A49062000F0DF
:10C90000EDFABB790533DBB2FA791146184600F02F
:10C910009DFA062000F00BFB3349072000F0DEFAF9
:10C92000BB790733DBB2FA791146184600F08EFA6C
:10C93000072000F0FCFABB790833DBB2FA79114624
:10C94000184600F083FA032000F0F1FA2749082086
:10C9500000F0C4FABB790933DBB2FA791146184604
:10C9600000F074FA082000F0E2FABB790A33DBB277
:10C97000FA791146184600F069FA032000F0D7FA58
:10C98000BB790B33DBB2FA791146184600F05EFA38
:10C99000062000F0CCFABB790C33DBB2FA791146F1
:10C9A000184600F053FA022000F0C1FABB790233B6
:10C9B000DAB2FB790133DBB21946104600F046FAD1
:10C9C0000B4800F0C1FA00BF0837BD4680BD00BF6C
:10C9D000500000203000002020000020180000201F
:10C9E000680000204800002028000020600000208F
:10C9F0005447010880B582B000AF03460A46FB7178
:10CA00001346BB7100F00CFA3949012000F066FAB8
:10CA1000FA79BB791146184600F018FA012000F0A7
:10CA200086FA3449022000F059FABB790133DBB2AF
:10CA3000FA791146184600F009FA022000F077FA58
:10CA40002D49032000F04AFABB790233DBB2FA79B0
:10CA50001146184600F0FAF9032000F068FA274959
:10CA6000042000F03BFABB790333DBB2FA791146BC
:10CA7000184600F0EBF9042000F059FA022000F00B
:10CA800056FA1F49052000F029FABB790533DBB2BD
:10CA9000FA791146184600F0D9F9052000F047FA56
:10CAA0001849062000F01AFABB790633DBB2FA798E
:10CAB0001146184600F0CAF9062000F038FA12496B
:10CAC000072000F00BFABB790733DBB2FA79114685
:10CAD000184600F0BBF9072000F029FA022000F008
:10CAE00026FA0A4800F030FA00BF0837BD4680BD7C
:10CAF0007000002020000020600000205000002076
:10CB00004800002068000020280000204C47010851
:10CB100080B582B000AF03460A46FB711346BB7175
:10CB200000F07EF93A49012000F0D8F9FA79BB7992
:10CB30001146184600F08AF9012000F0F8F935494D
:10CB4000022000F0CBF9BB790133DBB2FA79114650
:10CB5000184600F07BF9022000F0E9F92E49032085
:10CB600000F0BCF9BB790233DBB2FA791146184602
:10CB700000F06CF9032000F0DAF92849042000F0F5
:10CB8000ADF9BB790333DBB2FA791146184600F0F0
:10CB90005DF9042000F0CBF9BB790433DBB2FA79FC
:10CBA0001146184600F052F9022000F0C0F9BB7996
:10CBB0000533DBB2FA791146184600F047F9012037
:10CBC00000F0B5F91649052000F088F9BB79063365
:10CBD000DBB2FA791146184600F038F9052000F06A
:10CBE000A6F91049062000F079F9BB790733DBB2CA
:10CBF000FA791146184600F029F9062000F097F955
:10CC0000094800F0A1F900BF0837BD4680BD00BF4C
:10CC100018000020200000203000002040000020EC
:10CC200068000020480000204C47010880B582B011
:10CC300000AF03460A46FB711346BB7100F0F0F8E3
:10CC40003449012000F04AF9FA79BB7911461846B7
:10CC500000F0FCF8012000F06AF92F49022000F0F2
:10CC60003DF9BB790133DBB2FA791146184600F081
:10CC7000EDF8022000F05BF92849032000F02EF9BE
:10CC8000BB790233DBB2FA791146184600F0DEF8C0
:10CC9000032000F04CF9022000F049F9BB7903337E
:10CCA000DBB2FA791146184600F0D0F81C4905208D
:10CCB00000F014F9BB790433DBB2FA791146184657
:10CCC00000F0C4F8052000F032F91649062000F003
:10CCD00005F9BB790533DBB2FA791146184600F045
:10CCE000B5F8062000F023F90F49072000F0F6F808
:10CCF000BB790633DBB2FA791146184600F0A6F884
:10CD0000072000F014F9094800F01EF900BF0837A9
:10CD1000BD4680BD280000202000002038000020F3
:10CD200000000020080000203000002060470108BB
:10CD300080B582B000AF0346FB71344AFB791370B3
:10CD4000334B08221A70334B00221A702F4B1B787A
:10CD5000012B07D92F4B1B7843F00803DAB22D4B78
:10CD60001A7006E02B4B1B7843F00403DAB2294B10
:10CD70001A7000F087F9322001F0CCFE244B1B78AA
:10CD8000184600F045F94FF47A7001F0C3FE3020E8
:10CD900000F02CF941F2941000F09CF9302000F0E2
:10CDA00025F941F2941000F095F9302000F01EF9B9
:10CDB00041F2941000F08EF9202000F017F9642061
:10CDC00000F088F9134B1B7843F02003DBB21846C0
:10CDD00000F0CFF8104B04221A7000F069F800F050
:10CDE0001FF80E4B02221A700C4B1B7843F0040301
:10CDF000DBB2184600F0BDF841F2941000F06AF979
:10CE000000F019F800BF0837BD4680BDC3030020FD
:10CE1000C4030020C0030020C1030020C20300207F
:10CE200080B500AF012000F0A4F84FF4FA6000F0E4
:10CE300051F900BF80BD80B500AF022000F099F825
:10CE40004FF4FA6000F046F900BF80BD90B587B09E
:10CE500000AF03460A46FB711346BB71124B07F144
:10CE600008040FCB84E80F00104B1B78BA799A4264
:10CE700003D30E4B1B78013BBB71BB799B0018336E
:10CE80003B4453F8103CDAB2FB791344DBB25BB29B
:10CE900063F07F035BB2DBB2184600F06AF800BFB4
:10CEA0001C37BD4690BD00BF64470108C303002086
:10CEB00080B500AF084B1B7843F00403DAB2064B91
:10CEC0001A70054B1B7843F00803DBB2184600F0DC
:10CED00050F800BF80BD00BFC103002080B584B002
:10CEE00000AF03463960FB71FB7903F00703FB7168
:10CEF000FB79DB005BB243F040035BB2DBB2184668
:10CF000000F037F80023FB6009E0FB683A6813443F
:10CF10001B78184600F03BF8FB680133FB60FB68A8
:10CF2000072BF2DD00BF00BF1037BD4680BD80B5C6
:10CF300082B000AF0346FB71FB79184600F027F87A
:10CF400000BF0837BD4680BD80B582B000AF7860B5
:10CF500006E07B685A1C7A601B78184600F017F8C8
:10CF60007B681B78002BF4D100BF00BF0837BD469B
:10CF700080BD80B582B000AF0346FB71FB79002114
:10CF8000184600F012F800BF0837BD4680BD80B5D6
:10CF900082B000AF0346FB71FB790121184600F017
:10CFA00004F800BF0837BD4680BD80B584B000AF2F
:10CFB00003460A46FB711346BB71FB7923F00F034E
:10CFC000FB73FB791B01BB73FA7BBB791343DBB2A9
:10CFD000184600F00BF8BA7BBB791343DBB2184656
:10CFE00000F004F800BF1037BD4680BD80B582B0A8
:10CFF00000AF0346FB71FB79184600F009F8FB7996
:10D00000184600F021F800BF0837BD4680BD00007B
:10D0100080B586B002AF0346FB71094B1A78FB79E5
:10D020001343DBB2FB7307F10F020A2300930123C2
:10D030004E21044802F04CFA00BF1037BD4680BDB7
:10D04000C40300205005002080B582B000AF034625
:10D05000FB71FB7943F00403DBB21846FFF7D8FFFE
:10D06000142000F037F8FB7923F00403DBB21846F4
:10D07000FFF7CEFF142000F02DF800BF0837BD46A3
:10D0800080BD000080B400AF104BDB680F4A23F076
:10D090008073D3600D4BDB680C4A43F08073D36020
:10D0A0000B4B1B680A4A23F001031360084B1B68F3
:10D0B000074A43F001031360054B00225A6000BF8A
:10D0C00000BF00BF00BFBD4680BC7047F0ED00E070
:10D0D000001000E080B487B000AF78600D4B1B6893
:10D0E0000D4AA2FB03239A0C7B6802FB03F37B61CE
:10D0F0000A4B5B683B61094B5A683B69D31AFB607A
:10D10000FB687A699A42F6D800BF00BF1C37BD465B
:10D1100080BC70477C00002083DE1B43001000E0D1
:10D1200080B400AFBFF34F8F00BF064BDB6803F442
:10D13000E0620449044B1343CB60BFF34F8F00BF41
:10D1400000BFFDE700ED00E00400FA0580B584B003
:10D1500000AF78607B681B681D4A934234D100237E
:10D16000FB601C4B1B783C2B02D11B4B01221A701D
:10D17000194B1B78002B08D0184B1B685A1C1749F9
:10D180000A60144A1178164AD154124B1B78212B8D
:10D1900015D1114B00221A70124B1B6807F10C02BB
:10D1A0001146184604F0A7FEFB68002B07D00E4B73
:10D1B0004FF080521A60BFF34F8FBFF36F8F012281
:10D1C00004490A4803F033FD00BF1037BD4680BD57
:10D1D00000380140C6030020C5030020740400206D
:10D1E000400400204405002004ED00E0FC05002080
:10D1F000B0B59CB000AF72B600BF5B4B5B4A9A60A3
:10D2000062B600BF01F006FC00F0E0F800F0DCF9C7
:10D2100000F022F900F04EF900F082F900F0AAF9CE
:10D2200000F0E7FF0220FFF783FD0122504951483B
:10D2300003F0FDFC504B1B68504A1360504BD3E980
:10D2400000235049C1E900234E4BD3E90023104687
:10D250001946FFF709F903464B4A13604A4B1A680F
:10D26000464B1B6849494A4806F03CFE4848FEF7D1
:10D270006FFF0346DAB2474B1A7005F03DFB0346D9
:10D28000454A136003220021012004F0D7FD034624
:10D29000424A136004F0EEFA0346414A1360414BE0
:10D2A00007F154041D460FCD0FC495E8070084E82C
:10D2B000070007F154030021184604F07BFA0346E7
:10D2C000394A1360394B07F138041D460FCD0FC49E
:10D2D00095E8070084E8070007F1380300211846A5
:10D2E00004F068FA0346324A1360324B07F11C041B
:10D2F0001D460FCD0FC495E8070084E8070007F12D
:10D300001C030021184604F055FA03462A4A13600C
:10D310002A4B3C461D460FCD0FC495E8070084E814
:10D3200007003B460021184604F044FA0346244A0D
:10D33000136002210020FFF78DFA194B1B680121B1
:10D34000184604F0B7FB164B1B680021184604F082
:10D3500079FB03461B4A136004F025FA1A48FFF7CD
:10D36000F3FDFFF7DDFE00BF00ED00E000C00008A8
:10D37000C6030020FC050020F0BF0008C803002001
:10D3800000B00008D0030020D8030020A447010803
:10D39000DC03002073040020400500204405002029
:10D3A00048050020044801088C0600202048010898
:10D3B000900600203C4801089406002058480108C7
:10D3C000980600204C050020F447010880B590B075
:10D3D00000AF07F1180328220021184606F024FCAC
:10D3E0003B1D00221A605A609A60DA601A610123BC
:10D3F000BB614FF48033FB6100233B620123BB62BE
:10D4000002237B634FF48033BB634FF4E013FB6371
:10D4100007F11803184602F04DFC0346002B01D01B
:10D4200000F0B0FB0F237B600223BB600023FB6096
:10D430004FF480633B6100237B613B1D0221184652
:10D4400002F0BAFE0346002B01D000F09BFB00BFA8
:10D450004037BD4680BD000080B500AF124B134A77
:10D460001A60114B124A5A600F4B00229A600E4B01
:10D470000022DA600C4B4FF480421A610A4B002202
:10D480005A61094B00229A61074B0022DA61064B70
:10D4900000221A62044801F0D7FE0346002B01D097
:10D4A00000F070FB00BF80BD50050020005400401C
:10D4B000A086010080B500AF174B184A1A60164BC2
:10D4C0004FF482725A60144B00229A60124B002271
:10D4D000DA60114B00221A610F4B00225A610E4B89
:10D4E0004FF400729A610C4B1822DA610A4B002249
:10D4F0001A62094B00225A62074B00229A62064BBD
:10D500000A22DA62044802F0E5FF0346002B01D04C
:10D5100000F038FB00BF80BDA405002000300140B2
:10D5200080B500AF114B124A1A60104B4FF4E13234
:10D530005A600E4B00229A600C4B0022DA600B4BB3
:10D5400000221A61094B0C225A61084B00229A6191
:10D55000064B0022DA61054803F096FA0346002BD9
:10D5600001D000F00FFB00BF80BD00BFFC05002014
:10D570000038014080B500AF114B124A1A60104BC1
:10D580004FF4E1325A600E4B00229A600C4B00229D
:10D59000DA600B4B00221A61094B0C225A61084BCE
:10D5A00000229A61064B0022DA61054803F06CFA0A
:10D5B0000346002B01D000F0E5FA00BF80BD00BF9C
:10D5C000440600200044004080B588B000AF07F159
:10D5D000100300221A605A609A60DA60374B9B6928
:10D5E000364A43F010039361344B9B6903F01003F8
:10D5F000FB60FB68314B9B69304A43F02003936129
:10D600002E4B9B6903F02003BB60BB682B4B9B69CF
:10D610002A4A43F004039361284B9B6903F00403F7
:10D620007B607B68254B9B69244A43F00803936128
:10D63000224B9B6903F008033B603B6800224FF4D8
:10D6400000511F4801F0CEFD002210211D4801F0BD
:10D65000C9FD002203211C4801F0C4FD4FF4005312
:10D660003B6101237B610023BB610223FB6107F166
:10D6700010031946124801F031FC10233B610123CD
:10D680007B610023BB610223FB6107F11003194694
:10D690000C4801F023FC03233B6101237B61002341
:10D6A000BB610223FB6107F110031946064801F034
:10D6B00015FC00BF2037BD4680BD00BF00100240F2
:10D6C0000010014000080140000C014080B588B006
:10D6D00002AF78603B4B18684FF0FF330093012393
:10D6E0000022012104F0E0F8364B1B6800211846A7
:10D6F00004F0A8F90346344A136000F05BFE0346C9
:10D70000FB74FB7C002B58D001F0FAF903462F4A3A
:10D71000136034E02E4B1B78184600F0D3FDF86000
:10D72000FB68002B1BD000237B610FE07B69FA684C
:10D730001A44284B1B78591CC8B226490870194650
:10D740001278254B5A547B6901337B617B690F2B1F
:10D75000ECDD1F4B1B780133DAB21D4B1A7001F060
:10D76000CFF90246194B1B68D31AB3F57A7F06D35B
:10D77000174B01221A70174B00221A7003E0144B4A
:10D780001B78022BC6D9124B1B78032B15D1134BD8
:10D790001A68114B1249134806F0A4FB1148FEF712
:10D7A000D7FC0346DAB2104B1A7000F0FBFF054BB2
:10D7B0001B680221184604F07DF9642004F046F845
:10D7C00088E700BF480500204C05002034050020F4
:10D7D000780000203305002010050020D803002029
:10D7E00074480108780400207204002080B400AF5F
:10D7F00000BFBD4680BC704780B592B000AF786076
:10D80000804B1B684FF0FF31184604F001FC7E4B43
:10D810001B6819467D4801F059F878647A4B00225C
:10D820001A607B6C40F22512934200F08C807B6C76
:10D83000B3F5937F80F2C9807B6C40F22312934250
:10D8400000F0A2807B6CB3F5927F80F2BE807B6C8F
:10D85000CA2B0AD07B6CCA2B00F3B7807B6CC82B19
:10D860003CD07B6CC92B40D0AFE0694B1B680021DA
:10D87000184604F0E7F838640221664801F0CAFC53
:10D8800000F03EFF03210020FFF7B4F83B6C03F0EB
:10D890000403002B15D0604800F0D2FF5E48FEF76D
:10D8A00057FC0346DAB25D4B1A705C4B1B785A4941
:10D8B000184600F089F9594B1B78184600F068F9B2
:10D8C00007E04FF47A7001F025F902210020FEF7FD
:10D8D000C1FF02214F4801F09DFC8DE04C4B1B68BD
:10D8E0001021184604F0AEF886E04848FEF730FCF8
:10D8F0000346194607F10C031A46444800F064FF3A
:10D9000000210020FFF792F907F10C031846FFF7FA
:10D910001BFB4FF4FA6001F0FDF8962200213E480F
:10D9200006F082F93A4B1B680121184604F0C2F850
:10D93000374B1B680421184604F084F802210020AC
:10D94000FEF788FF58E0FFF76BFA00210020FFF791
:10D950007DFA00210020FEF717FE00F001FF4FF4D2
:10D960007A7001F0D7F802210020FEF773FF284BF0
:10D970001B680121184604F09DF8254B1B68042103
:10D98000184604F05FF837E0FFF74AFA002100205C
:10D99000FFF75CFA00210020FEF7B0FE00F0E0FE89
:10D9A0004FF47A7001F0B6F802210020FEF752FF22
:10D9B000174B1B680121184604F07CF8144B1B68B8
:10D9C0000421184604F03EF816E007F10C03322259
:10D9D0000021184606F028F902210020FEF73AFF40
:10D9E0000B4B1B680121184604F064F8084B1B68B8
:10D9F0000421184604F026F832220021034806F0DC
:10DA000013F9FDE6440500207404002040040020C2
:10DA100048050020000C014078040020720400201A
:10DA200080B586B002AF78600A23FB60204B18688F
:10DA30004FF0FF33009300230122F96803F034FF15
:10DA4000B860BB6803F00203002B1AD0184B1B68A8
:10DA50000121184603F0F6FF04210020FFF758F8D3
:10DA6000144B1B781449184600F0AEF804F044FF3C
:10DA70000346124A13600E4B1B680421184604F03B
:10DA800019F8BB6803F00803002BCFD00C4B1B78B0
:10DA90000C49184600F098F8054B1B6810211846F1
:10DAA00004F008F804F028FF0346074A1360BDE7B6
:10DAB000480500207204002078040020380500206A
:10DAC00073040020DC0300203C05002080B586B0F4
:10DAD00000AF7860264B1B680021184603F0B2FFA8
:10DAE00078617B6903F00403002B0DD004F004FF80
:10DAF0000246204B1B68D31A3B613B6943F69722D1
:10DB0000934201D9FFF70CFB04F0F6FE02461A4BD4
:10DB10001B68D31A194A934211D904F0EDFE03464B
:10DB2000154A1360124B1B680021184603F08AFF48
:10DB300078610F4B1B680821184603F0BBFF7B6917
:10DB400003F01003002B0DD004F0D6FE02460C4B60
:10DB50001B68D31AFB60FB6841F28732934201D9FC
:10DB6000FFF7DEFA4FF4FA7003F070FEB2E700BF81
:10DB7000480500203805002040050020DF93040000
:10DB80003C05002080B400AF00BFBD4680BC70479C
:10DB900080B582B000AF78607A680849084806F01E
:10DBA000A1F9642332220649064802F0BDFF1E2077
:10DBB00000F0B0FF00BF0837BD4680BDBC4801087B
:10DBC0009C060020FC05002080B582B000AF786084
:10DBD00039607868FFF7DCFF322000F09BFF7B683C
:10DBE0009AB264233968034802F09EFF00BF0837E9
:10DBF000BD4680BDFC05002080B586B002AF03465F
:10DC0000FB71FB793B7307F1080207F10C010A2352
:10DC100000930123034802F0E1FC3B7A18461037D9
:10DC2000BD4680BDA405002080B582B000AF03468C
:10DC30000A46FB711346BB7100221021094801F00E
:10DC4000D1FAFB791846FFF7D7FFBB791846FFF7E3
:10DC5000D3FF01221021034801F0C4FA00BF0837A6
:10DC6000BD4680BD0008014080B584B000AF0346CA
:10DC7000FB71002210210B4801F0B4FAFB79184621
:10DC8000FFF7BAFF0020FFF7B7FF0346FB7301223F
:10DC90001021044801F0A6FAFB7B18461037BD4658
:10DCA00080BD00BF0008014080B582B000AF0346D0
:10DCB0000A46FB711346BB71FB795B00DBB203F0D4
:10DCC0007E03FB71BA79FB7911461846FFF7ACFF6A
:10DCD00000BF0837BD4680BD80B584B000AF0346A5
:10DCE000FB71FB795B005BB203F07E035BB263F018
:10DCF0007F035BB2FB71FB791846FFF7B5FF034664
:10DD0000FB73FB7B18461037BD4680BD80B582B0E3
:10DD100000AF03460A46FB711346BB71FB791846F8
:10DD2000FFF7DAFF03461A46BB791343DAB2FB79F1
:10DD300011461846FFF7B8FF00BF0837BD4680BD43
:10DD400080B582B000AF03460A46FB711346BB7133
:10DD5000FB791846FFF7C0FF03465AB297F9063021
:10DD6000DB435BB213405BB2DAB2FB791146184673
:10DD7000FFF79AFF00BF0837BD4680BD80B586B06B
:10DD800002AF03463960FB7107210D20FFF78CFFBE
:10DD90003B68FA791A7007F10C0300933B68012283
:10DDA00039680C2000F00FF80346FB73FB7B002B57
:10DDB00002D1BB89102B01D00223FB73FB7B1846D9
:10DDC0001037BD4680BD90B587B000AFB9607B60AD
:10DDD0000346FB731346BB730223FB750023BB751D
:10DDE00000237B75FB7B0C2B06D00E2B09D1122355
:10DDF000BB7510237B7505E07723BB7530237B75DE
:10DE000000E000BFBB7D63F07F03DBB21946022058
:10DE1000FFF74AFF80210420FFF792FF80210A20AC
:10DE2000FFF774FF00210120FFF73EFF00237B82F4
:10DE30000AE07B8ABA6813441B7819460920FFF769
:10DE400033FF7B8A01337B82BB7B9BB27A8A9A4207
:10DE5000EFD3FB7B19460120FFF726FFFB7B0C2B42
:10DE600003D180210D20FFF751FF4FF4FA637B822D
:10DE70000420FFF731FF03463B757B8A013B7B8221
:10DE80007B8A002B0AD03B7D03F00103002B05D1D8
:10DE90003A7D7B7D1340DBB2002BE9D080210D2041
:10DEA000FFF74EFF7B8A002B57D00620FFF714FFA9
:10DEB000034603F01B03002B4DD10023FB753A7D75
:10DEC000BB7D1340DBB203F00103002B01D0012323
:10DED000FB75FB7B0C2B40D10A20FFF7FDFE0346B0
:10DEE0003B750C20FFF7F8FE034603F007037B7435
:10DEF0007B7C002B0BD03B7D013B9BB2DB009AB2BD
:10DF00007B7C9BB213449AB2BB6A1A8005E03B7DCE
:10DF10009BB2DB009AB2BB6A1A803B7D002B01D119
:10DF200001233B753B7D102B01D910233B7500234A
:10DF30007B820AE07B8A7A68D4180920FFF7CCFE3E
:10DF4000034623707B8A01337B823B7D9BB27A8AB6
:10DF50009A42EFD301E00223FB75FB7D18461C3784
:10DF6000BD4690BD80B586B002AF786000237B735C
:10DF700000210D20FFF798FE7B6893221A707B68C2
:10DF8000013320221A7007F10A0300937B680222F2
:10DF900079680C20FFF717FF0346FB73FB7B002B10
:10DFA00018D10023BB7309E0BB7B7A6813441A784D
:10DFB0007B7B53407B73BB7B0133BB73BB7B032BEE
:10DFC000F2D9BB7B7A6813441B787A7B9A4201D0E2
:10DFD0000223FB73FB7B18461037BD4680BD90B50E
:10DFE00087B000AFF8600B467A60FB720421052011
:10DFF000FFF7A6FE80210A20FFF788FE0023FB75AD
:10E000000AE0FB7DFA6813441B7819460920FFF7E4
:10E010004BFEFB7D0133FB75FA7DFB7A9A42F0D310
:10E0200003210120FFF740FEFF23FB750520FFF7CA
:10E0300053FE0346BB75FB7D013BFB75FB7D002B4F
:10E0400004D0BB7D03F00403002BEFD02220FFF7A8
:10E0500043FE03461A467B681A707B685C1C2120CD
:10E06000FFF73AFE0346237000BF1C37BD4690BD44
:10E0700080B588B002AF786093233B7270237B72C7
:10E080000023FB750CE0FB7D7A681A44FB7D0233AC
:10E09000127818333B4403F8102CFB7D0133FB75D9
:10E0A000FB7D042BEFD907F10803DA1D07F1080304
:10E0B00007211846FFF793FF07F1080207F108014F
:10E0C00007F112030093134609220C20FFF77BFE91
:10E0D00003467B757B7D002B05D17B8A182B02D1F3
:10E0E0003B7ABB7501E00023BB75BB7D1846183732
:10E0F000BD4680BD80B58AB002AFBA607B60034682
:10E10000FB730B46BB73FB7B3B74BB7B7B740023B5
:10E11000BB770CE0BB7FBA681A44BB7F023312782E
:10E1200020333B4403F8102CBB7F0133BB77BB7F0C
:10E13000052BEFD90023BB770CE0BB7F7A681A442C
:10E14000BB7F0833127820333B4403F8102CBB7F8D
:10E150000133BB77BB7F032BEFD907F1100207F127
:10E16000100107F11C03009313460C220E20FFF749
:10E170002AFE0346FB77FB7F002B07D10820FFF721
:10E18000ABFD034603F00803002B01D10223FB770C
:10E19000FB7F18462037BD4680BD80B586B002AFF4
:10E1A00003463960FB713B6830221A703B680133CB
:10E1B000FA791A703B6802331A4602213868FFF771
:10E1C0000EFF07F10C0300933B68042239680C2012
:10E1D000FFF7F9FD0346FB73FB7B002B02D1BB89E4
:10E1E000902B01D00223FB73FB7B18461037BD46F2
:10E1F00080BD80B500AF00F020F88D212A20FFF708
:10E2000053FD3E212B20FFF74FFD1E212D20FFF750
:10E210004BFD00212C20FFF747FD70212620FFF742
:10E2200043FD40211520FFF73FFD3D211120FFF761
:10E230003BFD00F00AF800BF80BD80B500AF0F21A4
:10E240000120FFF731FD00BF80BD80B582B000AF77
:10E250001420FFF741FD0346FB71FB7903F0030334
:10E26000002B03D103211420FFF750FD00BF083716
:10E27000BD4680BD80B584B000AF0346FB7100236E
:10E28000FB7314E000224FF400510D4800F0AAFF88
:10E29000642000F03FFC01224FF40051084800F0D8
:10E2A000A1FF642000F036FCFB7B0133FB73FA7B9B
:10E2B000FB799A42E6D300BF00BF1037BD4680BD50
:10E2C0000010014080B58AB000AF0346FB71374AA9
:10E2D00007F1180392E80300186004331980344BE7
:10E2E0003B62FFF786FF07F1080319462620FFF778
:10E2F00045FD034687F8273097F82730002B50D18B
:10E3000007F108031846FFF72DFE034687F827306C
:10E3100097F82730002B3DD107F108031846FFF787
:10E32000A7FE034687F8273097F82730002B2AD01E
:10E3300007F1080307F11802F9796120FFF7DAFE07
:10E34000034687F8273097F82730002B14D1FB7944
:10E3500017491846FFF721FF034687F8273097F83B
:10E360002730002B01D13B6A1CE097F82730022BA5
:10E3700002D10520FFF77EFF97F82730002B02D04F
:10E380000420FFF777FF97F82730002B02D00320F7
:10E39000FFF770FF97F82730002B02D00220FFF71D
:10E3A00069FF002318462837BD4680BDEC480108A8
:10E3B000D006002080B586B000AFFFF71AFF3B1DE6
:10E3C00019462620FFF7DAFC0346FB75FB7D002B80
:10E3D00001D1012300E0002318461837BD4680BD57
:10E3E00080B584B000AF184B9B69174A43F0010316
:10E3F0009361154B9B6903F00103BB60BB68124B33
:10E40000DB69114A43F08053D3610F4BDB6903F0A2
:10E4100080537B607B6800220F216FF0010000F0C9
:10E4200074FC0A4B5B68FB60FB6823F0E063FB60F5
:10E43000FB6843F00073FB60044AFB68536000BF55
:10E440001037BD4680BD00BF0010024000000140F3
:10E4500080B588B000AF786007F1100300221A6021
:10E460005A609A60DA607B681B68154A934223D130
:10E47000144B9B69134A43F008039361114B9B694A
:10E4800003F00803FB60FB68C0233B6112237B6140
:10E490000323FB6107F1100319460B4800F01EFD32
:10E4A000084BDB69074A43F40013D361054BDB6972
:10E4B00003F40013BB60BB6800BF2037BD4680BDBE
:10E4C0000054004000100240000C014080B588B0AC
:10E4D00000AF786007F1100300221A605A609A605A
:10E4E000DA607B681B681B4A93422FD11A4B9B69E9
:10E4F000194A43F480539361174B9B6903F480538B
:10E50000FB60FB68144B9B69134A43F0040393615F
:10E51000114B9B6903F00403BB60BB68A0233B6104
:10E5200002237B610323FB6107F1100319460B48AB
:10E5300000F0D4FC40233B6100237B610023BB61DE
:10E5400007F110031946054800F0C8FC00BF20374A
:10E55000BD4680BD0030014000100240000801406F
:10E5600080B58AB000AF786007F1180300221A6006
:10E570005A609A60DA607B681B683B4A93423AD1E2
:10E580003A4B9B69394A43F480439361374B9B690B
:10E5900003F480437B617B69344B9B69334A43F0CE
:10E5A00004039361314B9B6903F004033B613B69B6
:10E5B0004FF40073BB610223FB6103237B6207F10D
:10E5C000180319462A4800F089FC4FF48063BB61A8
:10E5D0000023FB6100233B6207F11803194624481E
:10E5E00000F07CFC00220521252000F08EFB252078
:10E5F00000F0A7FB34E07B681B681E4A93422FD1D2
:10E600001A4BDB69194A43F40033D361174BDB69BA
:10E6100003F40033FB60FB68144B9B69134A43F01F
:10E6200004039361114B9B6903F00403BB60BB6857
:10E630000423BB610223FB6103237B6207F1180300
:10E6400019460B4800F04AFC0823BB610023FB611C
:10E6500000233B6207F118031946054800F03EFC11
:10E6600000BF2837BD4680BD003801400010024081
:10E67000000801400044004080B400AFBFF34F8F5A
:10E6800000BF064BDB6803F4E0620449044B13430C
:10E69000CB60BFF34F8F00BF00BFFDE700ED00E090
:10E6A0000400FA0580B400AFFEE780B500AFFFF7C5
:10E6B000E3FF80B400AFFEE780B400AFFEE780B4B4
:10E6C00000AFFEE780B400AF00BFBD4680BC70471E
:10E6D00080B500AF00F002FA04F0C4FC0346012B41
:10E6E00001D005F001F800BF80BD000080B500AF8B
:10E6F000024802F0C1FA00BF80BD00BFFC05002047
:10E7000080B500AF0121154800F084FD502000F0D5
:10E7100001FA0121114800F07DFD502000F0FAF9C6
:10E7200001210E4800F076FD502000F0F3F90121A0
:10E730000A4800F06FFD502000F0ECF90121074875
:10E7400000F068FD502000F0E5F90121034800F0D9
:10E7500061FD502000F0DEF900BF80BD000C0140DB
:10E7600080B500AF01210E4800F054FD4FF47A70DF
:10E7700000F0D0F901210A4800F04CFD4FF4FA7086
:10E7800000F0C8F90121064800F044FD4FF47A700A
:10E7900000F0C0F90121024800F03CFD00BF80BD3F
:10E7A000000C014080B500AF0121064800F032FDA9
:10E7B000322000F0AFF90121024800F02BFD00BF2C
:10E7C00080BD00BF000C014080B489B000AFF8608C
:10E7D000B9607A600023BB610023FB6108E0FB693C
:10E7E000FA6813441B782C2B07D0FB690133FB61BB
:10E7F000FA69BB689A42F2DB00E000BFFB690133B3
:10E800007B610DE07B69FA681A44BB69591CB961E8
:10E8100019467B680B4412781A707B6901337B615F
:10E82000BB68013B7A699A42ECDBBB697A681344A6
:10E8300000221A7000BF2437BD4680BC704700001C
:10E8400080B588B000AF78607868FDF781FC03463A
:10E85000BB611C49786805F072FB786170217869AA
:10E8600005F060FB38613A697B68D31AFB60BB69CD
:10E870000433FB610BE0FB69043B7A681A44FB69D3
:10E8800079680B4412781A70FB69013BFB61FA69E5
:10E89000FB689A42EFDC2221786905F043FB0346CE
:10E8A0000133BB60BB6808491A460B4603CB1060B6
:10E8B000516019889B781181937200BF2037BD4643
:10E8C00080BD00BFF44801080049010880B586B04A
:10E8D00000AF7860396000237B6108E07B697A686B
:10E8E00013441B783C2B07D07B6901337B617A6929
:10E8F0003B689A42F2DB00E000BF7B6901337A6833
:10E9000013441B783B737B6902337A6813441B788A
:10E910007B737B6903337A6813441B78BB733B7B3F
:10E92000452B09D17B7B522B06D1BB7B412B03D1DD
:10E930004FF00060FDF7F3FD07F10C03184605F0FA
:10E940002DF938613B6918461837BD4680BD000077
:10E9500080B586B000AF7860144A154BD31A7B613E
:10E960007B693B61134B1B68002B02D1114B124A90
:10E970001A60104B1A687B6813443A699A4207D2AE
:10E9800005F010F903460C221A604FF0FF3309E03E
:10E99000084B1B68FB60074B1A687B681344054AE9
:10E9A0001360FB6818461837BD4680BD0050002034
:10E9B0000004000050070020F827002080B400AFBA
:10E9C00000BFBD4680BC7047FFF7F8FF0B480C49FD
:10E9D0000C4A002302E0D458C4500433C4188C42BB
:10E9E000F9D3094A094C002301E013600432A24222
:10E9F000FBD305F0DDF8FEF7FBFB704700000020BD
:10EA0000F0000020E44A0108F0000020F427002074
:10EA1000FEE7000080B500AF084B1B68074A43F0D3
:10EA200010031360032000F065F90F2000F026F8B2
:10EA3000FFF7D6FC0023184680BD00BF002002402F
:10EA400080B500AF094B4FF0FF321A61074B00222F
:10EA50001A61064B4FF0FF32DA60044B0022DA6095
:10EA600000F006F80023184680BD00BF00100240E9
:10EA700080B400AF00BFBD4680BC704780B582B097
:10EA800000AF7860124B1A68124B1B7819464FF48E
:10EA90007A73B3FBF1F3B2FBF3F3184600F05FF9BE
:10EAA0000346002B01D001230EE07B680F2B0AD810
:10EAB000002279684FF0FF3000F027F9064A7B68A2
:10EAC0001360002300E0012318460837BD4680BDCF
:10EAD0007C000020840000208000002080B400AF73
:10EAE000054B1B781A46054B1B681344034A1360F9
:10EAF00000BFBD4680BC7047840000205407002042
:10EB000080B400AF024B1B681846BD4680BC7047FE
:10EB10005407002080B584B000AF7860FFF7F0FFA5
:10EB2000B8607B68FB60FB68B3F1FF3F05D00A4B20
:10EB30001B781A46FB681344FB6000BFFFF7E0FF39
:10EB40000246BB68D31AFA689A42F7D800BF00BFE2
:10EB50001037BD4680BD00BF8400002080B485B062
:10EB600000AF78607B6803F00703FB600C4BDB6849
:10EB7000BB60BA684FF6FF031340BB60FB681A0224
:10EB8000BB68134343F0BF6343F40033BB60044AE4
:10EB9000BB68D36000BF1437BD4680BC704700BF60
:10EBA00000ED00E080B400AF044BDB681B0A03F00B
:10EBB00007031846BD4680BC704700BF00ED00E06B
:10EBC00080B483B000AF0346FB7197F90730002B88
:10EBD0000BDBFB7903F01F02064997F907305B094D
:10EBE000012000FA02F241F8232000BF0C37BD4695
:10EBF00080BC704700E100E080B483B000AF034602
:10EC00003960FB7197F90730002B0ADB3B68DAB2F9
:10EC10000C4997F907301201D2B20B4483F8002354
:10EC20000AE03B68DAB20849FB7903F00F03043BC2
:10EC30001201D2B20B441A7600BF0C37BD4680BC1D
:10EC4000704700BF00E100E000ED00E080B489B053
:10EC500000AFF860B9607A60FB6803F00703FB61FE
:10EC6000FB69C3F10703042B28BF0423BB61FB69C5
:10EC70000433062B02D9FB69033B00E000237B61D0
:10EC80004FF0FF32BB6902FA03F3DA43BB681A4064
:10EC90007B699A404FF0FF317B6901FA03F3D94356
:10ECA0007B680B40134318462437BD4680BC704731
:10ECB00080B582B000AF78607B68013BB3F1807FA4
:10ECC00001D301230FE00A4A7B68013B53600F2107
:10ECD0004FF0FF30FFF790FF054B00229A60044B86
:10ECE00007221A60002318460837BD4680BD00BFC2
:10ECF00010E000E080B582B000AF78607868FFF780
:10ED00002DFF00BF0837BD4680BD80B586B000AF7F
:10ED10000346B9607A60FB7300237B61FFF742FF13
:10ED200078617A68B9687869FFF790FF024697F9C9
:10ED30000F3011461846FFF75FFF00BF1837BD467A
:10ED400080BD80B582B000AF0346FB7197F90730F4
:10ED50001846FFF735FF00BF0837BD4680BD80B5B8
:10ED600082B000AF78607868FFF7A2FF03461846CC
:10ED70000837BD4680BD80B485B000AF7860002301
:10ED8000FB737B6893F82130DBB2022B08D07B68E1
:10ED900004229A637B68002283F82020012320E06C
:10EDA0007B681B681A687B681B6822F00E021A6079
:10EDB0007B681B681A687B681B6822F001021A6076
:10EDC0007B681A6C7B68DB6B012101FA02F25A60E6
:10EDD0007B68012283F821207B68002283F82020B1
:10EDE000FB7B18461437BD4680BC704780B584B0A5
:10EDF00000AF78600023FB737B6893F82130DBB2AF
:10EE0000022B05D07B6804229A630123FB7351E037
:10EE10007B681B681A687B681B6822F00E021A6008
:10EE20007B681B681A687B681B6822F001021A6005
:10EE30007B681B68224A934229D07B681B68214A61
:10EE4000934222D07B681B681F4A93421AD07B688A
:10EE50001B681E4A934212D07B681B681C4A93426F
:10EE60000AD07B681B681B4A934202D14FF480137F
:10EE70000EE04FF080730BE04FF4803308E04FF466
:10EE8000805305E04FF4807302E0102300E001237B
:10EE9000114A53607B68012283F821207B6800229D
:10EEA00083F820207B685B6B002B03D07B685B6B57
:10EEB00078689847FB7B18461037BD4680BD00BF79
:10EEC000080002401C0002403000024044000240A2
:10EED000580002406C0002400000024080B48BB039
:10EEE00000AF7860396000237B6200233B6269E1F8
:10EEF00001227B6A02FA03F3FB613B681B68FA6933
:10EF00001340BB61BA69FB699A4240F058813B6883
:10EF10005B689A4A93425ED0984A934275D8984A61
:10EF2000934258D0964A93426FD8964A934252D011
:10EF3000944A934269D8944A93424CD0924A93425D
:10EF400063D8924A934246D0904A93425DD8122B9E
:10EF50002AD8122B59D801A252F823F0D7EF000873
:10EF6000B1EF0008C3EF000805F000080BF000083F
:10EF70000BF000080BF000080BF000080BF0000885
:10EF80000BF000080BF000080BF000080BF0000875
:10EF90000BF000080BF000080BF000080BF0000865
:10EFA000B9EF0008CDEF0008794A934213D02CE066
:10EFB0003B68DB683B6229E03B68DB6804333B620B
:10EFC00024E03B68DB6808333B621FE03B68DB689A
:10EFD0000C333B621AE03B689B68002B02D1042390
:10EFE0003B6213E03B689B68012B05D108233B6221
:10EFF0007B68FA691A6109E008233B627B68FA6959
:10F000005A6103E000233B6200E000BFBB69FF2BB5
:10F0100001D87B6801E07B6804337B61BB69FF2B0F
:10F0200002D87B6A9B0002E07B6A083B9B003B6145
:10F030007B691A680F213B6901FA03F3DB431A402D
:10F04000396A3B6901FA03F31A437B691A603B682A
:10F050005B6803F08053002B00F0B1804D4B9B693F
:10F060004C4A43F0010393614A4B9B6903F001034F
:10F07000BB60BB68484A7B6A9B08023352F8233066
:10F08000FB607B6A03F003039B000F2202FA03F389
:10F09000DB43FA681340FB607B68404A934213D01D
:10F0A0007B683F4A93420DD07B683E4A934207D02B
:10F0B0007B683D4A934201D1032306E0042304E028
:10F0C000022302E0012300E000237A6A02F0030237
:10F0D00092009340FA681343FB602F497B6A9B08B8
:10F0E0000233FA6841F823203B685B6803F480131D
:10F0F000002B06D02D4B9A682C49BB6913438B60BB
:10F1000006E02A4B9A68BB69DB43284913408B60B1
:10F110003B685B6803F40013002B06D0234BDA68CE
:10F120002249BB691343CB6006E0204BDA68BB6918
:10F13000DB431E491340CB603B685B6803F400333C
:10F14000002B06D0194B5A681849BB6913434B6012
:10F1500006E0164B5A68BB69DB43144913404B6009
:10F160003B685B6803F48033002B21D00F4B1A6897
:10F170000E49BB6913430B6021E000BF0000321051
:10F1800000003110000022100000211000001210B9
:10F190000000111000100240000001400008014072
:10F1A000000C014000100140001401400004014027
:10F1B0000B4B1A68BB69DB43094913400B607B6A40
:10F1C00001337B623B681A687B6A22FA03F3002BE7
:10F1D0007FF48EAE00BF00BF2C37BD4680BC7047A9
:10F1E0000004014080B483B000AF78600B467B80A0
:10F1F00013467B707B78002B03D07A887B681A617A
:10F2000003E07B881A047B681A6100BF0C37BD4697
:10F2100080BC704780B485B000AF78600B467B80BF
:10F220007B68DB68FB607A88FB6813401A04FB6824
:10F23000D9437B880B401A437B681A6100BF14379F
:10F24000BD4680BC7047000080B584B000AF7860D8
:10F250007B68002B01D101232BE17B6893F83D30C3
:10F26000DBB2002B06D17B68002283F83C20786853
:10F27000FFF7EEF87B68242283F83D207B681B684B
:10F280001A687B681B6822F001021A607B681B68A1
:10F290001A687B681B6842F400421A607B681B682E
:10F2A0001A687B681B6822F400421A6001F0CCF8EF
:10F2B000F8607B685B68814A934207D8FB68804AA4
:10F2C000934294BF01230023DBB206E0FB687D4A32
:10F2D000934294BF01230023DBB2002B01D0012312
:10F2E000E7E0FB68784AA2FB03239B0CBB607B68CA
:10F2F0001B685B6823F03F017B681B68BA680A43A0
:10F300005A607B681B681B6A23F03F017B685B685F
:10F310006A4A934202D8BB68013309E0BB684FF4E4
:10F32000967202FB03F3694AA2FB03239B09013394
:10F330007A6812680B4313627B681B68DB6923F4ED
:10F340004F4222F0FF027B685B685C498B4219D810
:10F35000FB68591E7B685B685B00B1FBF3F3591CCB
:10F3600040F6FC730B40002B0AD0FB68591E7B68EB
:10F370005B685B00B1FBF3F30133C3F30B0351E0B4
:10F3800004234FE07B689B68002B11D1FB68581E5B
:10F390007B6859680B465B000B44B0FBF3F3013309
:10F3A000C3F30B03002B0CBF01230023DBB212E0DD
:10F3B000FB68581E7B6859680B469B000B449900FC
:10F3C0000B44B0FBF3F30133C3F30B03002B0CBF6F
:10F3D00001230023DBB2002B01D0012322E07B6854
:10F3E0009B68002B0ED1FB68581E7B6859680B4642
:10F3F0005B000B44B0FBF3F30133C3F30B0343F4A3
:10F4000000430FE0FB68581E7B6859680B469B0061
:10F410000B4499000B44B0FBF3F30133C3F30B032C
:10F4200043F44043796809681343CB617B681B68E8
:10F430001B6823F0C0017B68DA697B681B6A1A438A
:10F440007B681B680A431A607B681B689B6823F40F
:10F45000034323F0FF037A6811697A68D268114385
:10F460007A6812680B4393607B681B68DB6823F043
:10F47000FF017B685A697B689B691A437B681B683C
:10F480000A43DA607B681B681A687B681B6842F075
:10F4900001021A607B6800221A647B68202283F8CC
:10F4A0003D207B6800221A637B68002283F83E209F
:10F4B000002318461037BD4680BD00BFA08601005E
:10F4C0007F841E00FF083D0083DE1B43D34D621086
:10F4D00080B588B002AFF8607A601A460B467B812F
:10F4E00013463B81FFF70CFB7861FB6893F83D30D6
:10F4F000DBB2202B40F0E0807B69009319230122CE
:10F500007049F86800F064F90346002B01D002232B
:10F51000D3E0FB6893F83C30012B01D10223CCE00F
:10F52000FB68012283F83C20FB681B681B6803F022
:10F530000103012B07D0FB681B681A68FB681B6876
:10F5400042F001021A60FB681B681A68FB681B68BE
:10F5500022F400621A60FB68212283F83D20FB68D8
:10F56000102283F83E20FB6800221A64FB687A6848
:10F570005A62FB683A895A85FB685B8D9AB2FB68D0
:10F580001A85FB68504ADA6279897B693A6AF868B9
:10F5900000F09CF80346002B01D001238DE00023EE
:10F5A0003B61FB681B685B693B61FB681B689B698F
:10F5B0003B613B6966E07A69396AF86800F022FAD3
:10F5C0000346002B0DD0FB681B6C042B07D1FB6896
:10F5D0001B681A68FB681B6842F400721A600123FA
:10F5E0006BE0FB685B6A1A78FB681B681A61FB6852
:10F5F0005B6A5A1CFB685A62FB685B8D9BB2013BDD
:10F600009AB2FB685A85FB681B8D013B9AB2FB6876
:10F610001A85FB681B685B6903F00403042B1BD18C
:10F62000FB681B8D002B17D0FB685B6A1A78FB68A0
:10F630001B681A61FB685B6A5A1CFB685A62FB68AC
:10F640005B8D9BB2013B9AB2FB685A85FB681B8DB0
:10F65000013B9AB2FB681A857A69396AF86800F04A
:10F6600019FA0346002B0DD0FB681B6C042B07D145
:10F67000FB681B681A68FB681B6842F400721A601A
:10F6800001231AE0FB681B8D002B94D1FB681B68DB
:10F690001A68FB681B6842F400721A60FB6820223B
:10F6A00083F83D20FB68002283F83E20FB6800229F
:10F6B00083F83C20002300E0022318461837BD469B
:10F6C00080BD00BF020010000000FFFF80B588B0C1
:10F6D00002AFF8607A603B600B467B81FB68DB6AB7
:10F6E0007B617B69082B06D07B69012B03D07B698A
:10F6F00013F5803F08D1FB681B681A68FB681B681C
:10F7000042F480721A600BE0FB681B6B122B07D16E
:10F71000FB681B681A68FB681B6842F480721A60F9
:10F720003B6800937B6800224FF00111F86800F0FD
:10F730004FF80346002B0DD0FB681B681B6803F4D1
:10F740008073B3F5807F03D1FB684FF400721A64B5
:10F75000032335E0FB681B69B3F5804F08D17B8933
:10F76000DBB21A46FB681B6802F0FE021A611BE05E
:10F770007B89DB11DBB203F00603DBB263F00F031E
:10F78000DAB2FB681B681A613B687A680E49F86850
:10F7900000F098F80346002B01D0012310E07B898C
:10F7A000DAB2FB681B681A613B687A680749F86837
:10F7B00000F088F80346002B01D0012300E000236D
:10F7C00018461837BD4680BD080001000200010040
:10F7D00080B584B000AFF860B9603B601346FB7140
:10F7E00048E03B68B3F1FF3F44D0FFF789F9024698
:10F7F000BB69D31A3A689A4202D33B68002B39D1CD
:10F80000BB681B0CDBB2012B0DD1FB681B685B696D
:10F81000DA43BB6813409BB2002B0CBF01230023CB
:10F82000DBB21A460CE0FB681B689B69DA43BB68D5
:10F8300013409BB2002B0CBF01230023DBB21A46FE
:10F84000FB799A4216D1FB6800221A63FB682022DA
:10F8500083F83D20FB68002283F83E20FB681B6C88
:10F8600043F02002FB681A64FB68002283F83C2006
:10F87000012323E0BB681B0CDBB2012B0DD1FB681D
:10F880001B685B69DA43BB6813409BB2002B0CBF5B
:10F8900001230023DBB21A460CE0FB681B689B695E
:10F8A000DA43BB6813409BB2002B0CBF012300233B
:10F8B000DBB21A46FB799A4293D0002318461037E0
:10F8C000BD4680BD80B584B000AFF860B9607A6095
:10F8D0003B6071E0FB681B685B6903F48063B3F510
:10F8E000806F23D1FB681B681A68FB681B6842F4B1
:10F8F00000721A60FB681B686FF480625A61FB68D3
:10F9000000221A63FB68202283F83D20FB68002256
:10F9100083F83E20FB681B6C43F00402FB681A640A
:10F92000FB68002283F83C20012367E07B68B3F189
:10F93000FF3F41D0FFF7E4F802463B68D31A7A68EC
:10F940009A4202D37B68002B36D1BB681B0CDBB21A
:10F95000012B0CD1FB681B685B69DA43BB68134061
:10F960009BB2002B14BF01230023DBB20BE0FB682A
:10F970001B689B69DA43BB6813409BB2002B14BF22
:10F9800001230023DBB2002B16D0FB6800221A6390
:10F99000FB68202283F83D20FB68002283F83E208C
:10F9A000FB681B6C43F02002FB681A64FB680022B2
:10F9B00083F83C20012321E0BB681B0CDBB2012B48
:10F9C0000CD1FB681B685B69DA43BB6813409BB2D0
:10F9D000002B14BF01230023DBB20BE0FB681B6884
:10F9E0009B69DA43BB6813409BB2002B14BF012311
:10F9F0000023DBB2002B7FF46DAF002318461037D5
:10FA0000BD4680BD80B584B000AFF860B9607A6053
:10FA100034E0F86800F086F80346002B01D001239B
:10FA200034E0BB68B3F1FF3F28D0FFF769F8024626
:10FA30007B68D31ABA689A4202D3BB68002B1DD1E7
:10FA4000FB681B685B6903F08003802B16D0FB68A2
:10FA500000221A63FB68202283F83D20FB68002205
:10FA600083F83E20FB681B6C43F02002FB681A649D
:10FA7000FB68002283F83C20012307E0FB681B6839
:10FA80005B6903F08003802BC3D100231846103735
:10FA9000BD4680BD80B584B000AFF860B9607A60C3
:10FAA00034E0F86800F03EF80346002B01D0012353
:10FAB00034E0BB68B3F1FF3F28D0FFF721F80246DE
:10FAC0007B68D31ABA689A4202D3BB68002B1DD157
:10FAD000FB681B685B6903F00403042B16D0FB680A
:10FAE00000221A63FB68202283F83D20FB68002275
:10FAF00083F83E20FB681B6C43F02002FB681A640D
:10FB0000FB68002283F83C20012307E0FB681B68A8
:10FB10005B6903F00403042BC3D10023184610379C
:10FB2000BD4680BD80B483B000AF78607B681B6841
:10FB30005B6903F48063B3F5806F1BD17B681B683E
:10FB40006FF480625A617B6800221A637B6820220E
:10FB500083F83D207B68002283F83E207B681B6C85
:10FB600043F004027B681A647B68002283F83C201F
:10FB7000012300E0002318460C37BD4680BC7047C7
:10FB800080B582B000AFFEF7BBFF7860454B1B68C5
:10FB9000444A43F00103136008E0FEF7B1FF024658
:10FBA0007B68D31A022B01D9032377E03D4B1B68F6
:10FBB00003F00203002BF0D03A4B1B6823F0F8034C
:10FBC000384A43F080031360FEF79AFF7860354BA4
:10FBD00000225A600AE0FEF793FF02467B68D31AC0
:10FBE00041F28832934201D9032357E02D4B5B68E1
:10FBF00003F00C03002BEED12B4B2C4A1A602C4B3C
:10FC00001B681846FEF73AFF0346002B01D001237C
:10FC100044E0FEF775FF7860224B1B68214A23F011
:10FC20008073136008E0FEF76BFF02467B68D31A0F
:10FC3000022B01D9032331E01A4B1B6803F0007338
:10FC4000002BF0D1174B00225A60FEF759FF786065
:10FC5000144B1B68134A23F41023136008E0FEF7CB
:10FC60004FFF02467B68D31A642B01D9032315E0AA
:10FC70000C4B1B6803F40033002BF0D1094B1B68BD
:10FC8000084A23F480231360064B5B6A054A43F05D
:10FC900080735362034B00229A6000231846083792
:10FCA000BD4680BD001002407C00002000127A009A
:10FCB0008000002080B586B000AF78607B68002BA4
:10FCC00001D1012372E27B681B6803F00103002B62
:10FCD00000F08780924B5B6803F00C03042B0CD080
:10FCE0008F4B5B6803F00C03082B12D18C4B5B68C5
:10FCF00003F48033B3F5803F0BD1894B1B6803F4C9
:10FD00000033002B6CD07B685B68002B68D101232B
:10FD10004CE27B685B68B3F5803F06D1804B1B6883
:10FD20007F4A43F4803313602EE07B685B68002BCE
:10FD30000CD17B4B1B687A4A23F480331360784BD9
:10FD40001B68774A23F4802313601DE07B685B689F
:10FD5000B3F5A02F0CD1724B1B68714A43F480237A
:10FD600013606F4B1B686E4A43F4803313600BE0E3
:10FD70006B4B1B686A4A23F480331360684B1B6823
:10FD8000674A23F4802313607B685B68002B13D0E1
:10FD9000FEF7B6FE386108E0FEF7B2FE02463B69A8
:10FDA000D31A642B01D9032300E25D4B1B6803F4D3
:10FDB0000033002BF0D014E0FEF7A2FE386108E01B
:10FDC000FEF79EFE02463B69D31A642B01D903233A
:10FDD000ECE1534B1B6803F40033002BF0D100E03F
:10FDE00000BF7B681B6803F00203002B63D04C4B01
:10FDF0005B6803F00C03002B0BD0494B5B6803F0EE
:10FE00000C03082B1CD1464B5B6803F48033002B9A
:10FE100016D1434B1B6803F00203002B05D07B680F
:10FE20001B69012B01D00123C0E13D4B1B6823F06E
:10FE3000F8027B685B69DB00394913430B603AE0E9
:10FE40007B681B69002B20D0364B01221A60FEF71D
:10FE500057FE386108E0FEF753FE02463B69D31AAD
:10FE6000022B01D90323A1E12D4B1B6803F00203F0
:10FE7000002BF0D02A4B1B6823F0F8027B685B69EB
:10FE8000DB00274913430B6015E0264B00221A6064
:10FE9000FEF736FE386108E0FEF732FE02463B69A7
:10FEA000D31A022B01D9032380E11D4B1B6803F0F9
:10FEB0000203002BF0D17B681B6803F00803002BC2
:10FEC0003AD07B689B69002B19D0174B01221A602E
:10FED000FEF716FE386108E0FEF712FE02463B69A7
:10FEE000D31A022B01D9032360E10D4B5B6A03F0A7
:10FEF0000203002BF0D0012000F0CEFA1CE00A4BE8
:10FF000000221A60FEF7FCFD38610FE0FEF7F8FDF5
:10FF100002463B69D31A022B08D9032346E100BFEE
:10FF2000001002400000424280044242924B5B6A51
:10FF300003F00203002BE9D17B681B6803F0040384
:10FF4000002B00F0A6800023FB758B4BDB6903F0D0
:10FF50008053002B0DD1884BDB69874A43F08053D7
:10FF6000D361854BDB6903F08053BB60BB68012321
:10FF7000FB75824B1B6803F48073002B18D17F4BF9
:10FF80001B687E4A43F480731360FEF7B9FD386145
:10FF900008E0FEF7B5FD02463B69D31A642B01D990
:10FFA000032303E1754B1B6803F48073002BF0D02F
:10FFB0007B68DB68012B06D16F4B1B6A6E4A43F0EE
:10FFC000010313622DE07B68DB68002B0CD16A4BC8
:10FFD0001B6A694A23F001031362674B1B6A664A76
:10FFE00023F0040313621CE07B68DB68052B0CD153
:10FFF000614B1B6A604A43F0040313625E4B1B6A49
:020000040801F1
:100000005D4A43F0010313620BE05B4B1B6A5A4AE3
:1000100023F001031362584B1B6A574A23F0040371
:1000200013627B68DB68002B15D0FEF769FD386131
:100030000AE0FEF765FD02463B69D31A41F28832B9
:10004000934201D90323B1E04B4B1B6A03F0020337
:10005000002BEED014E0FEF753FD38610AE0FEF706
:100060004FFD02463B69D31A41F28832934201D9CF
:1000700003239BE0404B1B6A03F00203002BEED1ED
:10008000FB7D012B05D13C4BDB693B4A23F08053C0
:10009000D3617B68DB69002B00F08780364B5B689F
:1000A00003F00C03082B61D07B68DB69022B46D17F
:1000B000334B00221A60FEF723FD386108E0FEF79B
:1000C0001FFD02463B69D31A022B01D903236DE0C1
:1000D000294B1B6803F00073002BF0D17B681B6A6F
:1000E000B3F5803F08D1244B5B6823F400327B6872
:1000F0009B68214913434B601F4B5B6823F47412C8
:100100007B68196A7B685B6A0B431B4913434B602E
:100110001B4B01221A60FEF7F3FC386108E0FEF782
:10012000EFFC02463B69D31A022B01D903233DE0C1
:10013000114B1B6803F00073002BF0D035E0104B1F
:1001400000221A60FEF7DCFC386108E0FEF7D8FCFC
:1001500002463B69D31A022B01D9032326E0064B42
:100160001B6803F00073002BF0D11EE07B68DB6995
:10017000012B07D1012319E000100240007000405C
:10018000600042420B4B5B68FB60FB6803F480320B
:100190007B681B6A9A4206D1FB6803F470127B6885
:1001A0005B6A9A4201D0012300E000231846183709
:1001B000BD4680BD0010024080B584B000AF7860BD
:1001C00039607B68002B01D10123D0E06A4B1B68AA
:1001D00003F007033A689A4210D9674B1B6823F073
:1001E000070265493B6813430B60634B1B6803F0D0
:1001F00007033A689A4201D00123B8E07B681B6884
:1002000003F00203002B20D07B681B6803F004037B
:10021000002B05D0594B5B68584A43F4E0635360A8
:100220007B681B6803F00803002B05D0534B5B6809
:10023000524A43F460535360504B5B6823F0F00222
:100240007B689B684D4913434B607B681B6803F0D8
:100250000103002B40D07B685B68012B07D1474B23
:100260001B6803F40033002B15D101237FE07B686A
:100270005B68022B07D1414B1B6803F00073002B16
:1002800009D1012373E03D4B1B6803F00203002BEF
:1002900001D101236BE0394B5B6823F003027B68DB
:1002A0005B68364913434B60FEF72AFCF8600AE0AE
:1002B000FEF726FC0246FB68D31A41F288329342CD
:1002C00001D9032353E02D4B5B6803F00C027B68DC
:1002D0005B689B009A42EBD1274B1B6803F0070336
:1002E0003A689A4210D2244B1B6823F00702224935
:1002F0003B6813430B60204B1B6803F007033A680D
:100300009A4201D0012332E07B681B6803F00403AA
:10031000002B08D0194B5B6823F4E0627B68DB6834
:10032000164913434B607B681B6803F00803002BDE
:1003300009D0124B5B6823F460527B681B69DB00B9
:100340000E4913434B6000F021F802460B4B5B68EB
:100350001B0903F00F030A49CB5C22FA03F3094A95
:100360001360094B1B681846FEF788FB00231846EC
:100370001037BD4680BD00BF002002400010024083
:10038000144901087C0000208000002080B487B060
:1003900000AF0023FB600023BB6000237B610023D0
:1003A0007B6000233B611E4B5B68FB60FB6803F0D6
:1003B0000C03042B02D0082B03D027E0194B3B6120
:1003C00027E0FB689B0C03F00F03174AD35C7B60AC
:1003D000FB6803F48033002B10D0114B5B685B0C7F
:1003E00003F00103114AD35CBB607B680D4A03FB39
:1003F00002F2BB68B2FBF3F37B6104E07B680C4A5A
:1004000002FB03F37B617B693B6102E0054B3B61CF
:1004100000BF3B6918461C37BD4680BC704700BF13
:100420000010024000127A002C4901083C490108E2
:1004300000093D0080B400AF024B1B681846BD4662
:1004400080BC70477C00002080B500AFFFF7F2FF52
:100450000246054B5B681B0A03F007030349CB5CAC
:1004600022FA03F3184680BD001002402449010817
:1004700080B500AFFFF7DEFF0246054B5B68DB0A85
:1004800003F007030349CB5C22FA03F3184680BD4F
:10049000001002402449010880B485B000AF7860A4
:1004A0000A4B1B680A4AA2FB03235B0A7A6802FB19
:1004B00003F3FB6000BFFB685A1EFA60002BF9D102
:1004C00000BF00BF1437BD4680BC70477C000020D1
:1004D000D34D621080B582B000AF78607B68002B8E
:1004E00001D1012376E07B685B6A002B08D17B6831
:1004F0005B68B3F5827F09D07B680022DA6105E092
:100500007B6800221A617B6800225A617B680022A6
:100510009A627B6893F85130DBB2002B06D17B687E
:10052000002283F850207868FDF7D0FF7B68022214
:1005300083F851207B681B681A687B681B6822F06F
:1005400040021A607B685B6803F482727B689B6878
:1005500003F404431A437B68DB6803F400631A4323
:100560007B681B6903F002031A437B685B6903F035
:1005700001031A437B689B6903F400731A437B6889
:10058000DB6903F038031A437B681B6A03F08003BE
:1005900042EA03017B689B6A03F400527B681B6894
:1005A0000A431A607B689B691A0C7B681B6802F01F
:1005B00004025A607B681B68DA697B681B6822F456
:1005C0000062DA617B6800225A657B68012283F849
:1005D0005120002318460837BD4680BD80B58CB039
:1005E00000AFF860B9607A607B800123FB62002372
:1005F00087F82B30FB6893F85030012B01D1022390
:1006000098E1FB68012283F85020FEF779FA7862BE
:10061000FB6893F8513087F82330FB685B68FB6117
:100620007B887B8397F82330012B0FD0FB69B3F5D0
:10063000827F07D1FB689B68002B03D197F823309A
:10064000042B03D0022387F82B306DE1BB68002B0D
:1006500005D07B68002B02D07B88002B03D10123BF
:1006600087F82B3060E1FB6893F85130DBB2042B44
:1006700003D0FB68052283F85120FB6800225A65ED
:10068000FB687A689A63FB687A88DA87FB687A88FD
:100690009A87FB68BA681A63FB687A88DA86FB680F
:1006A0007A889A86FB6800221A64FB6800225A64E2
:1006B000FB681B681B6803F04003402B07D0FB68F6
:1006C0001B681A68FB681B6842F040021A60FB68EE
:1006D000DB68B3F5006F7CD1FB685B68002B02D050
:1006E0007B8B012B6AD1FB681B6B1A88FB681B682C
:1006F000DA60FB681B6B9A1CFB681A63FB68DB8E75
:100700009BB2013B9AB2FB68DA8657E0FB681B6834
:100710009B6803F00203022B1BD1FB68DB8E9BB2AC
:10072000002B16D0FB6A012B13D1FB681B6B1A88B8
:10073000FB681B68DA60FB681B6B9A1CFB681A631A
:10074000FB68DB8E9BB2013B9AB2FB68DA86002322
:10075000FB62FB681B689B6803F00103012B19D146
:10076000FB68DB8F9BB2002B14D0FB681B68DA6838
:10077000FB689B6B92B21A80FB689B6B9A1CFB68B0
:100780009A63FB68DB8F9BB2013B9AB2FB68DA8706
:100790000123FB62FEF7B4F902467B6AD31ABA6BF7
:1007A0009A420BD8BB6BB3F1FF3F07D0032387F806
:1007B0002B30FB68012283F85120B5E0FB68DB8E0B
:1007C0009BB2002BA2D1FB68DB8F9BB2002B9DD18B
:1007D00080E0FB685B68002B02D07B8B012B6FD124
:1007E000FB681A6BFB681B680C3312781A70FB6885
:1007F0001B6B5A1CFB681A63FB68DB8E9BB2013BC8
:100800009AB2FB68DA865BE0FB681B689B6803F0C2
:100810000203022B1CD1FB68DB8E9BB2002B17D08E
:10082000FB6A012B14D1FB681A6BFB681B680C3345
:1008300012781A70FB681B6B5A1CFB681A63FB6802
:10084000DB8E9BB2013B9AB2FB68DA860023FB6227
:10085000FB681B689B6803F00103012B19D1FB683F
:10086000DB8F9BB2002B14D0FB681B68DA68FB6837
:100870009B6BD2B21A70FB689B6B5A1CFB689A6325
:10088000FB68DB8F9BB2013B9AB2FB68DA870123DE
:10089000FB62FEF735F902467B6AD31ABA6B9A42BD
:1008A00003D8BB6BB3F1FF3F02D1BB6B002B07D169
:1008B000032387F82B30FB68012283F8512033E0B3
:1008C000FB68DB8E9BB2002B9ED1FB68DB8F9BB25B
:1008D000002B99D17A6AB96BF86800F0B7F8034633
:1008E000002B06D0012387F82B30FB6820225A65A5
:1008F0001AE0FB689B68002B0AD100237B61FB6830
:100900001B68DB687B61FB681B689B687B617B699C
:10091000FB685B6D002B03D0012387F82B3003E0CD
:10092000FB68012283F85120FB68002283F85020E5
:1009300097F82B3018463037BD4680BD80B588B05B
:1009400000AFF860B9603B601346FB71FEF7D8F862
:100950000246BB6A9B1A3A681344FB61FEF7D0F863
:10096000B861394B1B685B011B0DFA6902FB03F38D
:100970007B6154E03B68B3F1FF3F50D0FEF7C0F815
:100980000246BB69D31AFA699A4202D9FB69002B65
:100990003DD1FB681B685A68FB681B6822F0E002C7
:1009A0005A60FB685B68B3F5827F11D1FB689B6876
:1009B000B3F5004F04D0FB689B68B3F5806F07D197
:1009C000FB681B681A68FB681B6822F040021A600B
:1009D000FB689B6AB3F5005F0FD1FB681B681A6860
:1009E000FB681B6822F400521A60FB681B681A68D7
:1009F000FB681B6842F400521A60FB68012283F80E
:100A00005120FB68002283F85020032317E07B6904
:100A1000002B01D10023FB617B69013B7B61FB68FB
:100A20001B689A68BB681340BA689A420CBF0123DE
:100A30000023DBB21A46FB799A429BD10023184669
:100A40002037BD4680BD00BF7C00002080B586B049
:100A500002AFF860B9607A607B680093BB680022DF
:100A60008021F868FFF76AFF0346002B07D0FB6878
:100A70005B6D43F02002FB685A65032300E000230E
:100A800018461037BD4680BD80B582B000AF786093
:100A90007B68002B01D1012342E07B6893F8413051
:100AA000DBB2002B06D17B68002283F840207868F7
:100AB000FDF756FD7B68242283F841207B681B6884
:100AC000DA687B681B6822F40052DA60786800F00C
:100AD000C5FD7B681B681A697B681B6822F490421D
:100AE0001A617B681B685A697B681B6822F02A02BE
:100AF0005A617B681B68DA687B681B6842F40052A5
:100B0000DA607B6800225A647B68202283F84120E7
:100B10007B68202283F842207B6800225A630023EE
:100B200018460837BD4680BD80B58AB002AFF86070
:100B3000B9603B601346FB8000237B61FB6893F840
:100B40004130DBB2202B6DD1BB68002B02D0FB887B
:100B5000002B01D1012366E0FB6800225A64FB6888
:100B6000212283F84120FDF7CBFF7861FB68FA88EA
:100B70009A84FB68FA88DA84FB689B68B3F5805F27
:100B800008D1FB681B69002B04D10023FB61BB6803
:100B9000BB6103E0BB68FB610023BB612AE03B68EB
:100BA00000937B6900228021F86800F014FB034663
:100BB000002B01D0032336E0FB69002B0BD1BB696E
:100BC0001B881A46FB681B68C2F308025A60BB699F
:100BD0000233BB6107E0FB691A78FB681B685A6047
:100BE000FB690133FB61FB68DB8C9BB2013B9AB272
:100BF000FB68DA84FB68DB8C9BB2002BCFD13B68AF
:100C000000937B6900224021F86800F0E4FA034673
:100C1000002B01D0032306E0FB68202283F841204B
:100C2000002300E0022318462037BD4680BD80B572
:100C300084B000AFF860B9601346FB80FB6893F89E
:100C40004230DBB2202B12D1BB68002B02D0FB88D4
:100C5000002B01D101230BE0FB6800221A63FB8803
:100C60001A46B968F86800F024FB034600E0022346
:100C700018461037BD4680BD80B5BAB000AF786069
:100C80007B681B681B68C7F8E4307B681B68DB68FF
:100C9000C7F8E0307B681B685B69C7F8DC3000236D
:100CA000C7F8D8300023C7F8D430D7F8E43003F0C1
:100CB0000F03C7F8D830D7F8D830002B0FD1D7F8AA
:100CC000E43003F02003002B09D0D7F8E03003F024
:100CD0002003002B03D0786800F001FC5BE2D7F81A
:100CE000D830002B00F0DE80D7F8DC3003F00103B1
:100CF000002B06D1D7F8E03003F49073002B00F0FE
:100D0000D180D7F8E43003F00103002B0BD0D7F8E3
:100D1000E03003F48073002B05D07B685B6C43F0FC
:100D200001027B685A64D7F8E43003F00403002B17
:100D30000BD0D7F8DC3003F00103002B05D07B6823
:100D40005B6C43F002027B685A64D7F8E43003F02E
:100D50000203002B0BD0D7F8DC3003F00103002B8B
:100D600005D07B685B6C43F004027B685A64D7F85B
:100D7000E43003F00803002B11D0D7F8E03003F083
:100D80002003002B05D1D7F8DC3003F00103002B42
:100D900005D07B685B6C43F008027B685A647B6813
:100DA0005B6C002B00F0F281D7F8E43003F02003F5
:100DB000002B08D0D7F8E03003F02003002B02D03E
:100DC000786800F08CFB7B681B685B6903F040036C
:100DD000002B14BF01230023DBB2C7F8D4307B689B
:100DE0005B6C03F00803002B03D1D7F8D430002B41
:100DF0004FD0786800F096FA7B681B685B6903F057
:100E00004003002B41D07B681B681433C7F89C302B
:100E1000D7F89C3053E8003FC7F89830D7F898309F
:100E200023F04003C7F8D0307B681B681433D7F831
:100E3000D020C7F8A820C7F8A430D7F8A410D7F856
:100E4000A82041E80023C7F8A030D7F8A030002B35
:100E5000D9D17B68DB6B002B13D07B68DB6B7E4AC0
:100E60005A637B68DB6B1846FDF7C0FF0346002B17
:100E700016D07B68DB6B5B6B7A68D26B1046984749
:100E80000EE0786800F093F90AE0786800F08FF9D6
:100E900006E0786800F08BF97B6800225A6475E1FF
:100EA00000BF73E17B681B6B012B40F04F81D7F8CB
:100EB000E43003F01003002B00F04881D7F8E03055
:100EC00003F01003002B00F041810023BB607B681E
:100ED0001B681B68BB607B681B685B68BB60BB688A
:100EE0007B681B685B6903F04003002B00F0B68051
:100EF0007B68DB6B1B685B68A7F8BE30B7F8BE3059
:100F0000002B00F045817B689B8DB7F8BE209A428C
:100F100080F03E817B68B7F8BE20DA857B68DB6BAA
:100F20009B69202B00F088807B681B680C33C7F816
:100F30008830D7F8883053E8003FC7F88430D7F8B6
:100F4000843023F48073C7F8B8307B681B680C3397
:100F5000D7F8B820C7F89420C7F89030D7F8901089
:100F6000D7F8942041E80023C7F88C30D7F88C30AC
:100F7000002BD9D17B681B6814337B677B6F53E8E8
:100F8000003F3B673B6F23F00103C7F8B4307B6839
:100F90001B681433D7F8B420C7F88020FB67F96FBB
:100FA000D7F8802041E80023BB67BB6F002BE1D15D
:100FB0007B681B6814333B663B6E53E8003FFB6560
:100FC000FB6D23F04003C7F8B0307B681B68143317
:100FD000D7F8B020FA66BB66B96EFA6E41E8002316
:100FE0007B667B6E002BE3D17B68202283F8422056
:100FF0007B6800221A637B681B680C33FB64FB6C04
:1010000053E8003FBB64BB6C23F01003C7F8AC305F
:101010007B681B680C33D7F8AC20BA657B65796DAB
:10102000BA6D41E800233B653B6D002BE3D17B6843
:10103000DB6B1846FDF79FFE7B6802225A637B68D4
:101040009A8D7B68DB8D9BB2D31A9BB21946786868
:1010500000F0B6F89CE000BFE91301087B689A8DA8
:101060007B68DB8D9BB2D31AA7F8CE307B68DB8D13
:101070009BB2002B00F08E80B7F8CE30002B00F032
:1010800089807B681B680C33BB63BB6B53E8003FF4
:101090007B637B6B23F49073C7F8C8307B681B6855
:1010A0000C33D7F8C8207A643B64396C7A6C41E819
:1010B0000023FB63FB6B002BE3D17B681B681433BD
:1010C0007B627B6A53E8003F3B623B6A23F001038B
:1010D000C7F8C4307B681B681433D7F8C4203A6360
:1010E000FB62F96A3A6B41E80023BB62BB6A002BE2
:1010F000E3D17B68202283F842207B6800221A63B8
:101100007B681B680C333B613B6953E8003FFB6025
:10111000FB6823F01003C7F8C0307B681B680C33F2
:10112000D7F8C020FA61BB61B969FA6941E80023C8
:101130007B617B69002BE3D17B6802225A63B7F89D
:10114000CE301946786800F03BF823E0D7F8E43059
:1011500003F08003002B09D0D7F8E03003F08003C0
:10116000002B03D0786800F053F914E0D7F8E4308E
:1011700003F04003002B0ED0D7F8E03003F040031B
:10118000002B08D0786800F092F904E000BF02E07C
:1011900000BF00E000BFE837BD4680BD80B483B02B
:1011A00000AF786000BF0C37BD4680BC704780B48C
:1011B00083B000AF786000BF0C37BD4680BC70477D
:1011C00080B483B000AF78600B467B8000BF0C37E3
:1011D000BD4680BC704780B590B000AFF860B96084
:1011E0003B601346FB7150E0BB6CB3F1FF3F4CD04A
:1011F000BB6C002B07D0FDF783FC02463B68D31A7B
:10120000BA6C9A4241D2FB681B680C33BB62BB6A62
:1012100053E8003F7B627B6A23F4D073FB63FB6877
:101220001B680C33FA6B7A633B63396B7A6B41E86A
:101230000023FB62FB6A002BE5D1FB681B681433BB
:101240007B617B6953E8003F3B613B6923F001030D
:10125000BB63FB681B681433BA6B3A62FB61F969C4
:101260003A6A41E80023BB61BB69002BE5D1FB680A
:10127000202283F84120FB68202283F84220FB686B
:10128000002283F8402003230FE0FB681B681A68E4
:10129000BB681340BA689A420CBF01230023DBB23B
:1012A0001A46FB799A429FD0002318464037BD4624
:1012B00080BD80B485B000AFF860B9601346FB8094
:1012C000FB68BA689A62FB68FA889A85FB68FA88B4
:1012D000DA85FB6800225A64FB68222283F84220E8
:1012E000FB681B69002B07D0FB681B68DA68FB688A
:1012F0001B6842F48072DA60FB681B685A69FB68FD
:101300001B6842F001025A61FB681B68DA68FB68DF
:101310001B6842F02002DA60002318461437BD46ED
:1013200080BC704780B495B000AF78607B681B6864
:101330000C337B637B6B53E8003F3B633B6B23F4D5
:101340009073FB647B681B680C33FA6C3A64FB6334
:10135000F96B3A6C41E80023BB63BB6B002BE5D112
:101360007B681B6814333B623B6A53E8003FFB61B8
:10137000FB6923F00103BB647B681B681433BA6C00
:10138000FA62BB62B96AFA6A41E800237B627B6A4F
:10139000002BE5D17B681B6B012B19D17B681B6887
:1013A0000C33FB60FB6853E8003FBB60BB6823F075
:1013B00010037B647B681B680C337A6CBA617B61B9
:1013C0007969BA6941E800233B613B69002BE5D1AB
:1013D0007B68202283F842207B6800221A6300BFCA
:1013E0005437BD4680BC704780B584B000AF78608C
:1013F0007B685B6AFB60FB680022DA85FB68002281
:10140000DA84F868FFF7D3FE00BF1037BD4680BD11
:1014100080B485B000AF78607B6893F84130DBB270
:10142000212B3ED17B689B68B3F5805F14D17B682C
:101430001B69002B10D17B681B6AFB60FB681B8853
:101440001A467B681B68C2F308025A607B681B6AF5
:101450009A1C7B681A6208E07B681B6A591C7A68D0
:1014600011621A787B681B685A607B68DB8C9BB2C0
:10147000013B9BB27A681946D184002B0FD17B685F
:101480001B68DA687B681B6822F08002DA607B6880
:101490001B68DA687B681B6842F04002DA60002350
:1014A00000E0022318461437BD4680BC704780B563
:1014B00082B000AF78607B681B68DA687B681B6865
:1014C00022F04002DA607B68202283F841207868AD
:1014D000FFF764FE002318460837BD4680BD80B57F
:1014E0008CB000AF78607B6893F84230DBB2222B7F
:1014F00040F0AE807B689B68B3F5805F17D17B6856
:101500001B69002B13D10023FB627B689B6ABB62C3
:101510007B681B685B689BB2C3F308039AB2BB6A23
:101520001A807B689B6A9A1C7B689A6226E07B68BB
:101530009B6AFB620023BB627B689B68B3F5805F9C
:1015400007D07B689B68002B0AD17B681B69002B46
:1015500006D17B681B685B68DAB2FB6A1A7008E028
:101560007B681B685B68DBB203F07F03DAB2FB6A5F
:101570001A707B689B6A5A1C7B689A627B68DB8D59
:101580009BB2013B9BB27A681946D185002B5DD195
:101590007B681B68DA687B681B6822F02002DA60CF
:1015A0007B681B68DA687B681B6822F48072DA60EB
:1015B0007B681B685A697B681B6822F001025A61CC
:1015C0007B68202283F842207B6800225A637B6874
:1015D0001B6B012B35D17B6800221A637B681B686B
:1015E0000C337B617B6953E8003F3B613B6923F02F
:1015F00010037B627B681B680C337A6A3A62FB617A
:10160000F9693A6A41E80023BB61BB69002BE5D167
:101610007B681B681B6803F01003102B0AD10023A2
:10162000FB607B681B681B68FB607B681B685B68F2
:10163000FB60FB687B689B8D19467868FFF7C0FDEF
:1016400002E07868FBF782FD002302E0002300E05F
:10165000022318463037BD4680BD000080B584B0F7
:1016600000AF78607B681B681B6923F440517B687E
:10167000DA687B681B680A431A617B689A687B6832
:101680001B691A437B685B691343BB607B681B68FB
:10169000DB6823F4B05323F00C037A681268B9684E
:1016A0000B43D3607B681B685B6923F440717B68E4
:1016B0009A697B681B680A435A617B681B682C4ADD
:1016C000934203D1FEF7D4FEF86002E0FEF7BCFEC1
:1016D000F860FA6813469B0013449A001A447B682A
:1016E0005B689B00B2FBF3F3224AA2FB03235B0976
:1016F0001901FA6813469B0013449A001A447B6848
:101700005B689B00B2FBF3F21A4BA3FB02035B097D
:10171000642000FB03F3D31A1B013233154AA2FBEA
:1017200003235B0903F0F0031944FA6813469B0096
:1017300013449A001A447B685B689B00B2FBF3F287
:101740000C4BA3FB02035B09642000FB03F3D31AD9
:101750001B013233074AA2FB03235B0903F00F028C
:101760007B681B680A449A6000BF1037BD4680BD85
:10177000003801401F85EB5180B485B000AF0346AF
:10178000FB800023FB60B7F90630842B05D0B7F946
:101790000620FB6813440333FB60FB6818461437CC
:1017A000BD4680BC704780B500AF00F091FF0023BC
:1017B000184680BDF0B589B004AF786039607B68A9
:1017C0005B69002B20D07B689B69002B1CD07B6859
:1017D0005C687B681D687B681E697B68B3F90830AC
:1017E0001846FFF7C9FF01467B685B697A68926912
:1017F0000292019300913B6832462946204600F050
:1018000092FD0346FB601CE07B685C687B681D689A
:101810007B681B699EB27B68B3F908301846FFF7F6
:10182000ABFF024607F10C03019300923B6832467E
:101830002946204600F0D3FD0346012B01D00023AA
:1018400000E0FB6818461437BD46F0BD80B584B093
:1018500000AF78607B68FB60FB68002B01D0FB6801
:1018600000E00123184600F0FFFE00231846103761
:10187000BD4680BD80B582B000AF1C2001F0B6FF30
:1018800078607B68002B0AD07B6800221A607B6836
:101890000433184600F0BAF97B6800221A767B6898
:1018A00018460837BD4680BD80B590B000AFF860DF
:1018B000B9607A603B60FB687B630023BB630023F5
:1018C0003B63FB68002B0AD14FF0500383F3118870
:1018D000BFF36F8FBFF34F8F3B6200BFFEE7BB6864
:1018E00003F07F43002B0AD04FF0500383F311889D
:1018F000BFF36F8FBFF34F8FFB6100BFFEE7BB6885
:10190000002B0AD14FF0500383F31188BFF36F8F80
:10191000BFF34F8FBB6100BFFEE701F0A3FB03469F
:10192000002B02D1BB6C002B01D1012300E000236E
:10193000002B0AD14FF0500383F31188BFF36F8F50
:10194000BFF34F8F7B6100BFFEE700F02BFF7B6B87
:101950001B68FB623A68B968F86A00F036F9B86249
:10196000BB6A002B0ED0FB6AFB630023BB647B6861
:10197000002B28D07B6B1A68BB68DB431A407B6B5B
:101980001A6020E0BB6C002B04D1FB6AFB630123CF
:101990003B6318E07B68002B03D0BB6B43F0807384
:1019A000BB633B68002B03D0BB6B43F08063BB631E
:1019B0007B6B181DBA68BB6B1343BA6C194601F0F8
:1019C000EDF80023FB6300F0FBFE7862BB6C002B9C
:1019D00031D07B6A002B07D1194B4FF080521A602F
:1019E000BFF34F8FBFF36F8F01F080FCF863FB6B89
:1019F00003F00073002B1AD101F0F8FD7B6B1B681C
:101A0000FB633A68B968F86B00F0DFF80346002B17
:101A100009D07B68002B06D07B6B1A68BB68DB4360
:101A20001A407B6B1A6001233B6301F00FFEFB6BD6
:101A300023F07F43FB63FB6B18464037BD4680BDF8
:101A400004ED00E080B586B000AF786039607B6857
:101A50007B617B68002B0AD14FF0500383F3118820
:101A6000BFF36F8FBFF34F8FFB6000BFFEE73B6894
:101A700003F07F43002B0AD04FF0500383F311880B
:101A8000BFF36F8FBFF34F8FBB6000BFFEE701F066
:101A9000ADFD7B691B683B617B691A683B68DB4372
:101AA0001A407B691A6001F0D1FD3B69184618376E
:101AB000BD4680BD80B58EB000AF78603960002330
:101AC0003B637B68BB620023FB627B68002B0AD10F
:101AD0004FF0500383F31188BFF36F8FBFF34F8F25
